:100000000C944B000C9468000C9468000C946800ED
:100010000C9468000C9468000C9468000C946800C0
:100020000C9468000C9468000C9468000C946800B0
:100030000C9468000C9468000C9468000C946800A0
:100040000C9468000C9468000C9468000C94680090
:100050000C9468000C9468000C9468000C94680080
:100060000C9468000C94680074007A00800086008C
:100070008C00920098009E00A400AA00B000B60078
:10008000BC00C2007B027D027F02810283028502E6
:10009000870289028B0211241FBECFEFD8E0DEBF9A
:1000A000CDBF11E0A0E0B1E0E2E5FEE002C00590C6
:1000B0000D92AC31B107D9F721E0ACE1B1E001C05C
:1000C0001D92A432B207E1F70E94DE040C942707C8
:1000D0000C94000090E08E30910508F058C0FC01AF
:1000E000EC5CFF4F0C940406611102C0589808950F
:1000F000589A0895611102C059980895599A08951F
:10010000611102C05A9808955A9A0895611102C067
:100110005B9808955B9A0895611102C05C980895F8
:100120005C9A0895611102C05D9808955D9A0895E2
:10013000611102C05E9808955E9A0895611102C02F
:100140005F9808955F9A0895611102C028980895F4
:10015000289A0895611102C029980895299A08954E
:10016000611102C02A9808952A9A0895611102C067
:100170002B9808952B9A0895611102C02C98089528
:100180002C9A0895611102C02D9808952D9A089512
:10019000CF93DF9300D000D0CDB7DEB71C821B8297
:1001A0002B813C8128173907A8F41A8219822981EA
:1001B0003A81283E334038F429813A812F5F3F4FFE
:1001C0003A832983F4CF2B813C812F5F3F4F3C83BF
:1001D0002B83E6CF0F900F900F900F90DF91CF9170
:1001E000089560E0809118010E946A0060E08091AB
:1001F00016010E946A0060E0809114010E946A006A
:1002000060E0809112010E946A0060E0809110011C
:100210000E946A0060E080910E010E946A0060E026
:1002200080910C010C946A0060E0809118010E949A
:100230006A0061E0809116010E946A0061E080918D
:1002400014010E946A0060E0809112010E946A001D
:1002500060E0809110010E946A0060E080910E01D0
:100260000E946A0060E080910C010C946A0061E0D9
:10027000809118010E946A0061E0809116010E943D
:100280006A0060E0809114010E946A0061E0809140
:1002900012010E946A0061E0809110010E946A00D0
:1002A00060E080910E010E946A0061E080910C0183
:1002B0000C946A0061E0809118010E946A0061E07C
:1002C000809116010E946A0061E0809114010E94F1
:1002D0006A0061E0809112010E946A0060E08091F2
:1002E00010010E946A0060E080910E010E946A0085
:1002F00061E080910C010C946A0060E0809118012B
:100300000E946A0061E0809116010E946A0061E02B
:10031000809114010E946A0060E0809112010E94A5
:100320006A0060E0809110010E946A0061E08091A3
:100330000E010E946A0061E080910C010C946A0039
:1003400061E0809118010E946A0060E080911601CE
:100350000E946A0061E0809114010E946A0061E0DD
:10036000809112010E946A0060E0809110010E9459
:100370006A0061E080910E010E946A0061E0809154
:100380000C010C946A0061E0809118010E946A00DF
:1003900060E0809116010E946A0061E08091140182
:1003A0000E946A0061E0809112010E946A0061E08F
:1003B000809110010E946A0061E080910E010E940C
:1003C0006A0061E080910C010C946A0061E0809108
:1003D00018010E946A0061E0809116010E946A0083
:1003E00061E0809114010E946A0060E08091120136
:1003F0000E946A0060E0809110010E946A0060E043
:1004000080910E010E946A0060E080910C010C94C2
:100410006A0061E0809118010E946A0061E08091A9
:1004200016010E946A0061E0809114010E946A0036
:1004300061E0809112010E946A0061E080911001E8
:100440000E946A0061E080910E010E946A0061E0F2
:1004500080910C010C946A0061E0809118010E9467
:100460006A0061E0809116010E946A0061E080915B
:1004700014010E946A0061E0809112010E946A00EA
:1004800060E0809110010E946A0061E080910E019D
:100490000E946A0061E080910C010C946A0061E0A6
:1004A000809118010E946A0061E0809116010E940B
:1004B0006A0061E0809114010E946A0061E080910D
:1004C00012010E946A0061E0809110010E946A009E
:1004D00061E080910E010E946A0060E080910C0151
:1004E0000C946A00019789309105B8F48E5B9F4F98
:1004F000FC010C9404060C9414010C9437010C9428
:100500005A010C947D010C94A0010C94C3010C942D
:10051000E6010C9409020C942C020C944F028F9269
:100520009F92AF92BF92CF92DF92EF92FF920F9382
:100530001F93CF93DF934B015C01CAE0D1E061E0F0
:1005400088810E946A0008E011E061E0F801808182
:100550000E946A0086E0E82E81E0F82E61E0F70153
:1005600080810E946A0094E0C92E91E0D92E61E05A
:10057000F60180810E946A0020E030E048EC52E4FD
:10058000C501B4010E949C060E940A064B015C0151
:10059000CB0168EE73E00E94DC0570932301609349
:1005A000220188E19CEF689F9001699F300D789F40
:1005B000300D1124280D391DC90164E670E00E9438
:1005C000DC0570932101609320014CE94603F001A2
:1005D000479FF00D1124E20FF31FCF016AE070E096
:1005E0000E94DC0570931F0160931E0126EF260315
:1005F000C001279F900D11248E0F9F1F90931D0106
:1006000080931C0160E0F60180810E946A00809165
:100610001C0190911D010E94720280910001909135
:1006200001010E94C80061E0F60180810E946A0019
:1006300060E0F70180810E946A0080911E01909124
:100640001F010E94720280910001909101010E949D
:10065000C80061E0F70180810E946A0060E0F80153
:1006600080810E946A0080912001909121010E9466
:10067000720222E0E22E21E0F22E61E0F701808199
:100680000E946A0080910001909101010E94C800BF
:1006900060E0F70180810E946A0061E0F8018081DA
:1006A0000E946A0060E088810E946A0080912201B5
:1006B000909123010E9472028091000190910101AA
:1006C0000E94C80061E08881DF91CF911F910F9156
:1006D000FF90EF90DF90CF90BF90AF909F908F9062
:1006E0000C946A00AF92BF92CF92DF92EF92FF928A
:1006F0000F931F93CF93DF935C01CAE0D1E061E0D9
:1007000088810E946A0008E011E061E0F8018081C0
:100710000E946A0036E0E32E31E0F32E61E0F7013B
:1007200080810E946A0044E0C42E41E0D42E61E042
:10073000F60180810E946A00C50168EE73E00E94A4
:10074000F005709323016093220188E19CEF689F7C
:10075000F001699FF00D789FF00D1124EA0DFB1D4B
:10076000CF0164E670E00E94F00570932101609370
:1007700020014CE946039001479F300D11242E0FB4
:100780003F1FC9016AE070E00E94F00570931F01ED
:1007900060931E0146EF4603C001479F900D112450
:1007A000820F931F90931D0180931C0160E0F6015E
:1007B00080810E946A0080911C0190911D010E941D
:1007C000720280910001909101010E94C80061E0D5
:1007D000F60180810E946A0060E0F70180810E943A
:1007E0006A0080911E0190911F010E947202809107
:1007F0000001909101010E94C80061E0F701808131
:100800000E946A0060E0F80180810E946A00809185
:100810002001909121010E9472028091000190912B
:1008200001010E94C80061E0F80180810E946A0015
:1008300060E088810E946A008091220190912301EA
:100840000E94720280910001909101010E94C800F3
:1008500061E08881DF91CF911F910F91FF90EF9020
:10086000DF90CF90BF90AF900C946A00CF93DF934E
:1008700000D000D0CDB7DEB71C821B822B813C811B
:1008800028173907A8F41A82198229813A81283E4B
:10089000334038F429813A812F5F3F4F3A832983CF
:1008A000F4CF2B813C812F5F3F4F3C832B83E6CFDE
:1008B0000F900F900F900F90DF91CF910895ECE77C
:1008C000F0E0808180648083EAE7F0E080818768DF
:1008D0008083089590917C008F70907F892B809306
:1008E0007C0080917A00806480937A0080917A0005
:1008F00086FDFCCF809178009091790008950F9348
:100900001F93CF93DF939C01EC01E0E0F0E00AE05D
:1009100010E0CB01B8010E94DC05AF014F5F5F4FD3
:10092000805D89936115710541F4CA01959587959C
:10093000D901AE0FBF1FF90102C0FA01EACFBF0112
:10094000621B730B6817790734F460817C91719393
:100950006C931197F4CFF901E40FF51F1082DF912A
:10096000CF911F910F910895CF93DF93EC01289AB7
:100970000E94360485B191E0892785B9299ACE0174
:100980000E94360485B192E0892785B92A9ACE0162
:100990000E94360485B194E0892785B9DF91CF9113
:1009A0000895209A219A229A239A249A259A529A53
:1009B000539A549A559A569A579A0895CF93DF931B
:1009C00000D0CDB7DEB70E94D1040E945F0487E655
:1009D00090E00E94650580E00E946A049A83898302
:1009E00069817A8180E090E00E94360625E732E056
:1009F0004AEF5EE30E949C066B017C0104E610E076
:100A0000C701B6010E948F0201501109011511059D
:100A1000B9F7E1CFEF92FF920F931F93CF93DF933C
:100A200000D000D000D0CDB7DEB78C019B0180E1B3
:100A300097E29E838D831C821B828AE0E82EF12C34
:100A40008D819E81892B79F18D819E8128173907AF
:100A500010F16D817E81C9010E94DC057A83698372
:100A600049815A816D817E81649FC001659F900D8F
:100A7000749F900D1124281B390BEB81FC81898117
:100A80009A81E00FF11F805D80834B815C814F5F15
:100A90005F4F5C834B838D819E81B7010E94DC0593
:100AA0007E836D83CDCFEB81FC81E00FF11F10823F
:100AB00026960FB6F894DEBF0FBECDBFDF91CF9163
:100AC0001F910F91FF90EF9008959093C500809330
:100AD000C40088E18093C10086E08093C20008953D
:100AE0009091C00095FFFCCF8093C600089580913F
:100AF000C00087FFFCCF8091C6000895CF93DF939D
:100B0000EC018991882319F00E947005FACFDF91DA
:100B1000CF910895AF92BF92CF92DF92EF92FF9262
:100B20000F931F93CF93DF93CDB7DEB764970FB6C4
:100B3000F894DEBF0FBECDBF20E030E04AE754E4BA
:100B40000E949C060E940A066B017C0108EE13E0DD
:100B5000CB01B8010E94DC055B01CE010B960E941F
:100B60000A05CE010B960E947E058AE191E00E9463
:100B70007E05A09EC001A19E900DB09E900D1124F7
:100B8000B601681B790BCE0101960E940A05CE01C1
:100B900001960E947E0564960FB6F894DEBF0FBEE4
:100BA000CDBFDF91CF911F910F91FF90EF90DF901C
:100BB000CF90BF90AF900895AA1BBB1B51E107C017
:100BC000AA1FBB1FA617B70710F0A61BB70B881FDD
:100BD000991F5A95A9F780959095BC01CD0108956C
:100BE00097FB072E16F4009407D077FD09D00E94DA
:100BF000DC0507FC05D03EF4909581959F4F089544
:100C0000709561957F4F0895EE0FFF1F0590F49149
:100C1000E02D099470D088F09F5790F0B92F992754
:100C2000B751A0F0D1F0660F771F881F991F1AF0F7
:100C3000BA95C9F712C0B13081F077D0B1E008950C
:100C400074C0672F782F8827B85F39F0B93FCCF38D
:100C5000869577956795B395D9F73EF490958095ED
:100C6000709561957F4F8F4F9F4F0895E89409C00D
:100C700097FB3EF490958095709561957F4F8F4FCF
:100C80009F4F9923A9F0F92F96E9BB279395F695E5
:100C9000879577956795B795F111F8CFFAF4BB0F63
:100CA00011F460FF1BC06F5F7F4F8F4F9F4F16C0C7
:100CB000882311F096E911C0772321F09EE8872F51
:100CC000762F05C0662371F096E8862F70E060E00D
:100CD0002AF09A95660F771F881FDAF7880F969586
:100CE000879597F9089557FD9058440F551F59F06F
:100CF0005F3F71F04795880F97FB991F61F09F3F09
:100D000079F087950895121613061406551FF2CF31
:100D10004695F1DF08C0161617061806991FF1CF81
:100D200086957105610508940895E894BB276627A8
:100D30007727CB0197F908950BD078C069D028F0B8
:100D40006ED018F0952309F05AC05FC01124EECF81
:100D5000CADFA0F3959FD1F3950F50E0551F629F16
:100D6000F001729FBB27F00DB11D639FAA27F00D04
:100D7000B11DAA1F649F6627B00DA11D661F829F2B
:100D80002227B00DA11D621F739FB00DA11D621F10
:100D9000839FA00D611D221F749F3327A00D611D2D
:100DA000231F849F600D211D822F762F6A2F11240F
:100DB0009F5750408AF0E1F088234AF0EE0FFF1F62
:100DC000BB1F661F771F881F91505040A9F79E3F99
:100DD000510570F014C0AACF5F3FECF3983EDCF3EE
:100DE000869577956795B795F795E7959F5FC1F7D6
:100DF000FE2B880F911D9695879597F9089597F981
:100E00009F6780E870E060E008959FEF80EC0895B0
:100E100000240A94161617061806090608950024D9
:100E20000A9412161306140605060895092E039453
:100E3000000C11F4882352F0BB0F40F4BF2B11F4C7
:100E400060FF04C06F5F7F4F8F4F9F4F0895F894EE
:020E5000FFCFD2
:100E5200030009000C000200030006000B0004005E
:0C0E6200070008000A000D0005002E002B
:00000001FF
